:020000040800F2
:100000009807002029020008490900080109000892
:10001000450900080D0500086F10000800000000E9
:10002000000000000000000000000000D10B0008EC
:10003000B506000800000000D9090008C10C00083E
:10004000430200084302000843020008430200087C
:10005000430200084302000843020008430200086C
:10006000430200084302000843020008430200085C
:10007000430200084302000843020008430200084C
:10008000430200084302000843020008430200083C
:10009000430200084302000843020008430200082C
:1000A000430200084302000843020008430200081C
:1000B0002D0D0008E50D000843020008430200086A
:1000C00043020008430200084302000843020008FC
:1000D00043020008890F0008430200084302000899
:1000E00043020008430200084302000843020008DC
:1000F00043020008430200084302000843020008CC
:1001000043020008430200084302000843020008BB
:1001100043020008430200084302000843020008AB
:10012000430200084302000843020008430200089B
:10013000430200084302000843020008430200088B
:10014000430200084302000843020008430200087B
:10015000430200084302000843020008430200086B
:10016000430200084302000843020008430200085B
:10017000430200084302000843020008430200084B
:10018000430200084302000800F002F800F03CF8C7
:100190000AA090E8000C82448344AAF10107DA45E2
:1001A00001D100F031F8AFF2090EBAE80F0013F0F8
:1001B000010F18BFFB1A43F001031847E00F0000BE
:1001C00000100000103A24BF78C878C1FAD852074E
:1001D00024BF30C830C144BF04680C6070470000C1
:1001E0000023002400250026103A28BF78C1FBD840
:1001F000520728BF30C148BF0B6070471FB500F0E1
:10020000C7FF1FBD10B510BD00F033F81146FFF752
:10021000F5FF00F05DFF00F051F803B4FFF7F2FFC7
:1002200003BC00F026FF000009488047094800474A
:10023000FEE7FEE7FEE7FEE7FEE7FEE7FEE7FEE796
:10024000FEE7FEE704480549054A064B70470000F3
:10025000C50C0008890100089801002098070020BB
:10026000980300209803002070477047704770473C
:100270007047754600F028F8AE46050069465346BB
:1002800020F00700854618B020B5FFF7DBFFBDE87A
:1002900020404FF000064FF000074FF000084FF0ED
:1002A000000B21F00701AC46ACE8C009ACE8C0097E
:1002B000ACE8C009ACE8C0098D4670470446AFF30E
:1002C00000802046FFF7A9FF004870473801002052
:1002D00021B1826842F00102826003E0826822F06C
:1002E00001028260704700000021084A1168084A34
:1002F0001140D0E900231A4383681A43C3681A43A4
:100300001143044AC2F8041370470000042301405B
:10031000E030FCFF0020014021B1826842F480728D
:10032000826003E0826822F480728260704721B1AB
:10033000826842F40072826003E0826822F40072F4
:100340008260704730B50246002000235068104C90
:1003500020400D790C6844EA0524204350609068E1
:100360000C4C2040D1E903542C438D682C434D792B
:1003700044EA450420439060D06A20F470000C7D6C
:10038000641EE4B2234340EA0350D06230BD000053
:10039000FFFEFFFCFDF7FFC0F0B504460D46002050
:1003A0000021092D11DDE068A5F10A0606EB4607DC
:1003B000072606FA07F18843A5F10A0606EB46066A
:1003C00003FA06F10843E0600CE0206905EB4507FD
:1003D000072606FA07F1884305EB450603FA06F1FE
:1003E00008432061072A0FDA606B561E06EB86076A
:1003F0001F2606FA07F18843561E06EB860605FA05
:1004000006F10843606322E00D2A0FDA206BD61F45
:1004100006EB86071F2606FA07F18843D61F06EB70
:10042000860605FA06F10843206310E0E06AA2F1AF
:100430000D0606EB86071F2606FA07F18843A2F190
:100440000D0606EB860605FA06F10843E062F0BDEC
:10045000816841F0804181607047000000B58DB037
:100460000121084600F0C4FA0121080200F0E0FA78
:100470000120019003208DF8080000208DF80B006A
:1004800001A9204800F0E7F90121080200F0E0FA94
:1004900000214FF4807000F0DBFA002003904FF44D
:1004A00080300490401005900020069003A8FFF7CC
:1004B0001BFF002007908DF8200001208DF82100FF
:1004C000002009900B9001208DF8300007A90E48FC
:1004D000FFF738FF01231A4600210B48FFF75CFFA6
:1004E00001210948FFF723FF01210748FFF714FF07
:1004F00001210548FFF7ECFE0348FFF7A9FF0DB007
:1005000000BD0000000002400020014000BFFEE7E7
:1005100039B1084A1268012383401A43054B1A6017
:1005200006E0044A1268012383409A43014B1A6093
:10053000704700000074004030B5002200230A4CD0
:10054000226840F6FE748440A243D1E900452C4362
:100550008D682C43CD6844EA050303FA00F4224376
:10056000014C226030BD00000074004008B500223C
:100570000092054A009200F11402009B1A44009276
:10058000009A116008BD00000074004000B587B0FB
:100590000121084600F02CFA0121480700F038FA42
:1005A0002020059003208DF8180002208DF81B00F4
:1005B00005A9094800F04FF900200190029003902E
:1005C0000220049001A91020FFF7B6FF012110209E
:1005D000FFF79EFF07B000BD0000024021B1026896
:1005E00042F00102026003E0026822F001020260B0
:1005F0007047000010B500220268134B1A40CC6807
:100600000B6823434C6923438C692343CC69234300
:100610000C6A23434C6A23438C6A23434C6B234369
:100620008C6B23431A430260426922F00702D1E92E
:100630000B3423431A4342610B6943604B68836068
:100640008B68C36010BD00003F801CF000B58FB008
:100650000121880500F0CCF900200090124801909B
:100660001248029000200390012004900020059081
:1006700006904FF4006007908000089040110990A8
:1006800040020A9000200B9001200C9000200D9059
:100690000E9069460648FFF7ADFF01210448FFF7B9
:1006A0009DFF0FB000BD00004C2001403000002035
:1006B000106402407047000030B10749096841F4F6
:1006C0008061054A116005E00349096821F48061F1
:1006D000014A116070470000003C024070B50446BA
:1006E0000A460026082502B909E0012A01D11602AE
:1006F00005E0022A01D1160201E04FF4407600F035
:1007000099F80546082D28D11548006820F4407056
:1007100013490860084600683043086008460068CE
:1007200020F0F80008600846006844F00201084321
:100730000B4908600846006840F48030086000F00B
:1007400079F805460648006820F002000449086070
:100750000846006820F0F8000860284670BD0000D8
:10076000103C024008201049096801F48031B1F5BD
:10077000803F01D1012015E00B49096801F010010B
:1007800009B105200EE00849096801F0EF0109B13F
:10079000062007E00449096801F0020109B10720B9
:1007A00000E00820704700000C3C0240034800684D
:1007B00040F000400149086070470000103C0240D2
:1007C00030B502460C46082500F034F80546082DE1
:1007D00019D10E48006820F440700C4908600846A2
:1007E000006840F4007008600846006840F00100AE
:1007F0000860146000F01EF805460448006820F008
:10080000010002490860284630BD0000103C02404B
:100810000548006800F0004028B1044802490C393E
:100820000860034808607047103C02402301674598
:10083000AB89EFCD08B508200090FFF793FF00903B
:1008400002E0FFF78FFF00909DF800000128F8D02C
:100850009DF8000008BDF0B50A46002100230024E1
:1008600000BF3DE0012505FA01F3156805EA030420
:100870009C4234D105684F000326BE40B543056055
:1008800015794E00B5400668354305601579012D90
:1008900002D01579022D16D185684F000326BE407F
:1008A000B543856055794E00B5408668354385600F
:1008B000456801268E40B5434560456896798E406F
:1008C000B6B235434560C5684F000326BE40B54308
:1008D000C560D5794E00B540C6683543C560491C32
:1008E0001029BFD3F0BD0246002013690B400BB1A5
:1008F000012000E00020704741837047018370476A
:1009000000BFFEE71CB50121202000F071F8012096
:100910008DF8040000208DF806004FF4F060009080
:1009200001208DF8070003208DF805006946044872
:10093000FFF791FF4FF4F0610148FFF7DFFF1CBDA7
:100940000014024000BFFEE77047000070B50021B0
:1009500000230F22C4781CB3174C246804F4E0640D
:10096000C4F5E064C4F30721C1F10404E3B20A4111
:1009700044789C40E1B28478144021430C07210E56
:100980000E4C05786155047804F01F050124AC4035
:1009900005786D11AD0005F1E025C5F8004109E0CD
:1009A000047804F01F050124AC40054D067876114B
:1009B00045F8264070BD00000CED00E000E400E0CA
:1009C00080E100E002490143024A116070470000E3
:1009D0000000FA050CED00E0704710B50121880712
:1009E00000F069FA0121022000F0A8FB10BD000010
:1009F00029B1064A12680243044B1A6004E0034A14
:100A000012688243014B1A60704700003038024080
:100A100029B1064A12680243044B1A6004E0034AF3
:100A200012688243014B1A60704700004038024050
:100A300029B1064A12680243044B1A6004E0034AD3
:100A400012688243014B1A6070470000443802402C
:100A500029B1064A12680243044B1A6004E0034AB3
:100A600012688243014B1A6070470000243802402C
:100A700010B50121002000F061FB0121014800F0C8
:100A80001AFA10BD0004004001461C48814201D200
:100A9000002070471A48814201D20820F9E719481E
:100AA000814201D21020F4E71748814201D2182078
:100AB000EFE71648814201D22020EAE7144881423C
:100AC00001D22820E5E71348814201D23020E0E737
:100AD0001148814201D23820DBE71048814201D21F
:100AE0004020D6E70E48814201D24820D1E70D4888
:100AF000814201D25020CCE75820CAE700400008CC
:100B00000080000800C00008000001080000020882
:100B100000000408000006080000080800000A0899
:100B200000000C0800000E0800B50246104600F058
:100B300003F80346184600BD0146086870470000E8
:100B40002DE9F04704468846082600250027B4F121
:100B5000006F02D304F0030008B1BDE8F087FFF78F
:100B600057FE0020FFF7A8FD2546271D17488542A0
:100B700014D210E02846FFF7DFFF401C50B1284692
:100B8000FFF782FF81460221FFF7A8FD0646082EE7
:100B900001D002E02D1DBD42ECD300BF082E13D1C1
:100BA0000FE041462046FFF70BFE082800D00AE080
:100BB00041462046FFF704FE0120FFF77DFDFFF7C9
:100BC000F5FDBC42EDD300BF00BFC6E70000FF1F2C
:100BD000704700000CB50020019000903448006878
:100BE00040F480303249086000BF3148006800F4AA
:100BF000003000900198401C0190009818B90198AD
:100C0000B0F5A04FF1D12A48006800F4003010B1CF
:100C10000120009001E0002000900098012846D1BA
:100C200023484030006840F080502149403108603E
:100C30002048006840F440401E4908601C480830C5
:100C400000681B49083108600846006840F400400D
:100C500008600846006840F4A05008601648091F64
:100C60000860081F006840F08070091F086000BF1E
:100C70000F48006800F000700028F9D040F20560CD
:100C80000E4908600A480830006820F0030008494F
:100C9000083108600846006840F00200086000BFA4
:100CA00003480830006800F00C000828F8D10CBD9B
:100CB000003802400070004019544007003C0240D8
:100CC0007047000010B51548006840F470001349E3
:100CD00008601348006840F00100114908600020D6
:100CE0000F49083108600E4800680E4908400C4959
:100CF00008600D48091D0860081F006820F4802066
:100D0000091F0860002006490C310860FFF762FFE8
:100D10004FF0006001498039086010BD88ED00E0A7
:100D200000380240FFFFF6FE1030002410B501210C
:100D3000880700F0CCF8012825D113480068B0F1ED
:100D4000016F11D210480068FFF7EEFE0F490860EE
:100D50000846008881B20020FFF708FC0A480068B6
:100D6000001D094908600AE0094807490860002198
:100D7000000700F0A0F80021022000F0DFF90121B7
:100D8000880700F095F810BD5C000020600000208E
:100D900004C000081FB501210846FFF739FE632093
:100DA00002902920ADF804000020ADF80600ADF84F
:100DB0000C0001A94FF0804000F0A4F80122114678
:100DC000900700F095F81C208DF8000001208DF8A8
:100DD00001008DF802008DF803006846FFF7B6FDAC
:100DE0001FBD000010B50121174800F070F8012860
:100DF00028D116480068B0F1016F0CD21448008861
:100E000081B212480068FFF79BFE10480068001D81
:100E10000E49086012E000210B4800F04CF8002158
:100E20000C48FFF755FA00210A48FFF775FA002130
:100E3000084600F083F90120074908800121024893
:100E400000F036F810BD00000004004058000020FB
:100E50003000002000200140640000201FB5012167
:100E60000220FFF7D5FD632002902920ADF8040091
:100E70000020ADF80600ADF80C0001A90B4800F009
:100E800041F801221146094800F032F81D208DF882
:100E9000000000208DF8010001208DF802008DF87F
:100EA00003006846FFF752FD1FBD0000000400402C
:100EB000CA430282704721B1028842F001020280D7
:100EC00004E002884FF6FE731A400280704730B586
:100ED0000246002000230024158A05EA01039589B3
:100EE00005EA010413B10CB1012000E0002030BD7F
:100EF0001AB183890B43838102E083898B43838109
:100F00007047000000220288184B98420ED0184B00
:100F100098420BD0B0F1804F08D0164B984205D0C4
:100F2000154B984202D0154B984204D14FF68F735F
:100F30001A404B881A43124B984207D0114B9842E3
:100F400004D04FF6FF431A400B891A4302804B68C6
:100F5000C3620B880385054B984202D0044B98422C
:100F600001D18B7A03860123838270470000014000
:100F7000000401400004004000080040000C004054
:100F8000001000400014004010B540F225511D48EB
:100F900000F03EF810B31B4800F064F8C4B21A48E1
:100FA000008800F40040C8B91748008800F4804069
:100FB00060B10A2C03D000201349088020E01248B9
:100FC000008840F400401049088019E00D2C06D13B
:100FD0000D48008840F480400B49088010E00A4822
:100FE0000088C0F30D0009490C5407480088401CD4
:100FF0000549088008460088C72801DD00200880D0
:1010000010BD0000001001406C00002070000020A6
:1010100070B50246002400230025002040F66A1621
:10102000B14200D100BFC1F3421501F01F030126F8
:1010300006FA03F3012D02D19689334006E0022D12
:1010400002D1168A334001E0968A33400C12012601
:1010500006FA04F41688344013B10CB1012000E004
:10106000002070BD01468888C0F30800704700BFAB
:10107000FEE7014600BF70471CB501212020FFF7A5
:10108000B7FC1820009000208DF8040001208DF896
:10109000070069460148FFF7DEFB1CBD0014024053
:1010A00070B50446002504EB4402084B03EB8202B2
:1010B000118904EB440203EB82025068FFF713FC32
:1010C00005460DB9012070BD0020FCE7340000206A
:1010D0004FF4A060FFF776FCFFF7CEFFFFF712FC9E
:1010E000FFF758FEFFF7BAFEFFF7B8F9FFF7AEFAC1
:1010F000FFF74CFA1AE00020FFF7D2FF20B10C48AE
:10110000008808B9FFF7B4FC0948008870B10120D5
:10111000FFF7C6FF50B1FFF760FC064800680649BC
:10112000884203D100210007FFF7C5FEE3E7000076
:10113000640000205C00002004C0000870B5044674
:101140000D46002C01DB042C00DD70BD65B904EBFD
:1011500044020E4B03EB8202118904EB440203EBC1
:1011600082025068FFF7CAFB012D0CD104EB440248
:10117000064B03EB8202118904EB440203EB82026B
:101180005068FFF7B9FB00BFDFE700000000002058
:101190004FF04070E1EE100A70470000BC110008EB
:1011A0000000002070000000C40100082C1200089C
:1011B0007000002028070000E00100080000000087
:1011C00000140240800000000100000000140240F2
:1011D00000010000020000000014024000020000B4
:1011E00003000000001402400004000000000000A2
:1011F0000000000000140240080000000100000090
:101200000014024010000000020000000014024020
:101210002000000004C0000804C000080000000016
:0C122000000000000000000000000000C2
:040000050800018965
:00000001FF
